{
  "_format": "hh-sol-artifact-1",
  "contractName": "Dcs",
  "sourceName": "contracts/Dcs.sol",
  "abi": [
    {
      "inputs": [],
      "stateMutability": "nonpayable",
      "type": "constructor"
    },
    {
      "anonymous": false,
      "inputs": [
        {
          "indexed": true,
          "internalType": "address",
          "name": "owner",
          "type": "address"
        },
        {
          "indexed": true,
          "internalType": "address",
          "name": "spender",
          "type": "address"
        },
        {
          "indexed": false,
          "internalType": "uint256",
          "name": "value",
          "type": "uint256"
        }
      ],
      "name": "Approval",
      "type": "event"
    },
    {
      "anonymous": false,
      "inputs": [
        {
          "indexed": true,
          "internalType": "address",
          "name": "previousOwner",
          "type": "address"
        },
        {
          "indexed": true,
          "internalType": "address",
          "name": "newOwner",
          "type": "address"
        }
      ],
      "name": "OwnershipTransferred",
      "type": "event"
    },
    {
      "anonymous": false,
      "inputs": [
        {
          "indexed": true,
          "internalType": "address",
          "name": "from",
          "type": "address"
        },
        {
          "indexed": true,
          "internalType": "address",
          "name": "to",
          "type": "address"
        },
        {
          "indexed": false,
          "internalType": "uint256",
          "name": "value",
          "type": "uint256"
        }
      ],
      "name": "Transfer",
      "type": "event"
    },
    {
      "inputs": [
        {
          "internalType": "address",
          "name": "owner",
          "type": "address"
        },
        {
          "internalType": "address",
          "name": "spender",
          "type": "address"
        }
      ],
      "name": "allowance",
      "outputs": [
        {
          "internalType": "uint256",
          "name": "",
          "type": "uint256"
        }
      ],
      "stateMutability": "view",
      "type": "function"
    },
    {
      "inputs": [
        {
          "internalType": "address",
          "name": "spender",
          "type": "address"
        },
        {
          "internalType": "uint256",
          "name": "amount",
          "type": "uint256"
        }
      ],
      "name": "approve",
      "outputs": [
        {
          "internalType": "bool",
          "name": "",
          "type": "bool"
        }
      ],
      "stateMutability": "nonpayable",
      "type": "function"
    },
    {
      "inputs": [
        {
          "internalType": "address",
          "name": "account",
          "type": "address"
        }
      ],
      "name": "balanceOf",
      "outputs": [
        {
          "internalType": "uint256",
          "name": "",
          "type": "uint256"
        }
      ],
      "stateMutability": "view",
      "type": "function"
    },
    {
      "inputs": [],
      "name": "decimals",
      "outputs": [
        {
          "internalType": "uint8",
          "name": "",
          "type": "uint8"
        }
      ],
      "stateMutability": "view",
      "type": "function"
    },
    {
      "inputs": [
        {
          "internalType": "address",
          "name": "spender",
          "type": "address"
        },
        {
          "internalType": "uint256",
          "name": "subtractedValue",
          "type": "uint256"
        }
      ],
      "name": "decreaseAllowance",
      "outputs": [
        {
          "internalType": "bool",
          "name": "",
          "type": "bool"
        }
      ],
      "stateMutability": "nonpayable",
      "type": "function"
    },
    {
      "inputs": [
        {
          "internalType": "address",
          "name": "spender",
          "type": "address"
        },
        {
          "internalType": "uint256",
          "name": "addedValue",
          "type": "uint256"
        }
      ],
      "name": "increaseAllowance",
      "outputs": [
        {
          "internalType": "bool",
          "name": "",
          "type": "bool"
        }
      ],
      "stateMutability": "nonpayable",
      "type": "function"
    },
    {
      "inputs": [],
      "name": "name",
      "outputs": [
        {
          "internalType": "string",
          "name": "",
          "type": "string"
        }
      ],
      "stateMutability": "view",
      "type": "function"
    },
    {
      "inputs": [],
      "name": "owner",
      "outputs": [
        {
          "internalType": "address",
          "name": "",
          "type": "address"
        }
      ],
      "stateMutability": "view",
      "type": "function"
    },
    {
      "inputs": [],
      "name": "register",
      "outputs": [],
      "stateMutability": "payable",
      "type": "function"
    },
    {
      "inputs": [],
      "name": "renounceOwnership",
      "outputs": [],
      "stateMutability": "nonpayable",
      "type": "function"
    },
    {
      "inputs": [],
      "name": "symbol",
      "outputs": [
        {
          "internalType": "string",
          "name": "",
          "type": "string"
        }
      ],
      "stateMutability": "view",
      "type": "function"
    },
    {
      "inputs": [],
      "name": "totalSupply",
      "outputs": [
        {
          "internalType": "uint256",
          "name": "",
          "type": "uint256"
        }
      ],
      "stateMutability": "view",
      "type": "function"
    },
    {
      "inputs": [
        {
          "internalType": "address",
          "name": "to",
          "type": "address"
        },
        {
          "internalType": "uint256",
          "name": "amount",
          "type": "uint256"
        }
      ],
      "name": "transfer",
      "outputs": [
        {
          "internalType": "bool",
          "name": "",
          "type": "bool"
        }
      ],
      "stateMutability": "nonpayable",
      "type": "function"
    },
    {
      "inputs": [
        {
          "internalType": "address",
          "name": "from",
          "type": "address"
        },
        {
          "internalType": "address",
          "name": "to",
          "type": "address"
        },
        {
          "internalType": "uint256",
          "name": "amount",
          "type": "uint256"
        }
      ],
      "name": "transferFrom",
      "outputs": [
        {
          "internalType": "bool",
          "name": "",
          "type": "bool"
        }
      ],
      "stateMutability": "nonpayable",
      "type": "function"
    },
    {
      "inputs": [
        {
          "internalType": "address",
          "name": "newOwner",
          "type": "address"
        }
      ],
      "name": "transferOwnership",
      "outputs": [],
      "stateMutability": "nonpayable",
      "type": "function"
    },
    {
      "inputs": [
        {
          "internalType": "address",
          "name": "",
          "type": "address"
        }
      ],
      "name": "users",
      "outputs": [
        {
          "internalType": "uint256",
          "name": "balance",
          "type": "uint256"
        },
        {
          "internalType": "bool",
          "name": "isActive",
          "type": "bool"
        }
      ],
      "stateMutability": "view",
      "type": "function"
    }
  ],
  "bytecode": "0x60806040523480156200001157600080fd5b506040518060400160405280601a81526020017f446563656e7472616c697a656420536f6369616c204d656469610000000000008152506040518060400160405280600381526020017f444353000000000000000000000000000000000000000000000000000000000081525081600390805190602001906200009692919062000345565b508060049080519060200190620000af92919062000345565b505050620000d2620000c6620000f460201b60201c565b620000fc60201b60201c565b620000ee3069d3c21bcecceda1000000620001c260201b60201c565b620005a1565b600033905090565b6000600560009054906101000a900473ffffffffffffffffffffffffffffffffffffffff16905081600560006101000a81548173ffffffffffffffffffffffffffffffffffffffff021916908373ffffffffffffffffffffffffffffffffffffffff1602179055508173ffffffffffffffffffffffffffffffffffffffff168173ffffffffffffffffffffffffffffffffffffffff167f8be0079c531659141344cd1fd0a4f28419497f9722a3daafe3b4186f6b6457e060405160405180910390a35050565b600073ffffffffffffffffffffffffffffffffffffffff168273ffffffffffffffffffffffffffffffffffffffff16141562000235576040517f08c379a00000000000000000000000000000000000000000000000000000000081526004016200022c906200042d565b60405180910390fd5b62000249600083836200033b60201b60201c565b80600260008282546200025d91906200047d565b92505081905550806000808473ffffffffffffffffffffffffffffffffffffffff1673ffffffffffffffffffffffffffffffffffffffff1681526020019081526020016000206000828254620002b491906200047d565b925050819055508173ffffffffffffffffffffffffffffffffffffffff16600073ffffffffffffffffffffffffffffffffffffffff167fddf252ad1be2c89b69c2b068fc378daa952ba7f163c4a11628f55a4df523b3ef836040516200031b91906200044f565b60405180910390a362000337600083836200034060201b60201c565b5050565b505050565b505050565b8280546200035390620004e4565b90600052602060002090601f016020900481019282620003775760008555620003c3565b82601f106200039257805160ff1916838001178555620003c3565b82800160010185558215620003c3579182015b82811115620003c2578251825591602001919060010190620003a5565b5b509050620003d29190620003d6565b5090565b5b80821115620003f1576000816000905550600101620003d7565b5090565b600062000404601f836200046c565b9150620004118262000578565b602082019050919050565b6200042781620004da565b82525050565b600060208201905081810360008301526200044881620003f5565b9050919050565b60006020820190506200046660008301846200041c565b92915050565b600082825260208201905092915050565b60006200048a82620004da565b91506200049783620004da565b9250827fffffffffffffffffffffffffffffffffffffffffffffffffffffffffffffffff03821115620004cf57620004ce6200051a565b5b828201905092915050565b6000819050919050565b60006002820490506001821680620004fd57607f821691505b6020821081141562000514576200051362000549565b5b50919050565b7f4e487b7100000000000000000000000000000000000000000000000000000000600052601160045260246000fd5b7f4e487b7100000000000000000000000000000000000000000000000000000000600052602260045260246000fd5b7f45524332303a206d696e7420746f20746865207a65726f206164647265737300600082015250565b6119f480620005b16000396000f3fe6080604052600436106100f35760003560e01c8063715018a61161008a578063a87430ba11610059578063a87430ba14610321578063a9059cbb1461035f578063dd62ed3e1461039c578063f2fde38b146103d9576100f3565b8063715018a6146102775780638da5cb5b1461028e57806395d89b41146102b9578063a457c2d7146102e4576100f3565b806323b872dd116100c657806323b872dd14610195578063313ce567146101d257806339509351146101fd57806370a082311461023a576100f3565b806306fdde03146100f8578063095ea7b31461012357806318160ddd146101605780631aa3a0081461018b575b600080fd5b34801561010457600080fd5b5061010d610402565b60405161011a9190611390565b60405180910390f35b34801561012f57600080fd5b5061014a6004803603810190610145919061114b565b610494565b6040516101579190611375565b60405180910390f35b34801561016c57600080fd5b506101756104b7565b60405161018291906114f2565b60405180910390f35b6101936104c1565b005b3480156101a157600080fd5b506101bc60048036038101906101b791906110fc565b610592565b6040516101c99190611375565b60405180910390f35b3480156101de57600080fd5b506101e76105c1565b6040516101f49190611536565b60405180910390f35b34801561020957600080fd5b50610224600480360381019061021f919061114b565b6105ca565b6040516102319190611375565b60405180910390f35b34801561024657600080fd5b50610261600480360381019061025c9190611097565b610674565b60405161026e91906114f2565b60405180910390f35b34801561028357600080fd5b5061028c6106bc565b005b34801561029a57600080fd5b506102a3610744565b6040516102b0919061135a565b60405180910390f35b3480156102c557600080fd5b506102ce61076e565b6040516102db9190611390565b60405180910390f35b3480156102f057600080fd5b5061030b6004803603810190610306919061114b565b610800565b6040516103189190611375565b60405180910390f35b34801561032d57600080fd5b5061034860048036038101906103439190611097565b6108ea565b60405161035692919061150d565b60405180910390f35b34801561036b57600080fd5b506103866004803603810190610381919061114b565b61091b565b6040516103939190611375565b60405180910390f35b3480156103a857600080fd5b506103c360048036038101906103be91906110c0565b61093e565b6040516103d091906114f2565b60405180910390f35b3480156103e557600080fd5b5061040060048036038101906103fb9190611097565b6109c5565b005b6060600380546104119061164b565b80601f016020809104026020016040519081016040528092919081815260200182805461043d9061164b565b801561048a5780601f1061045f5761010080835404028352916020019161048a565b820191906000526020600020905b81548152906001019060200180831161046d57829003601f168201915b5050505050905090565b60008061049f610abd565b90506104ac818585610ac5565b600191505092915050565b6000600254905090565b633b9aca0034146104d157600080fd5b6000600660003373ffffffffffffffffffffffffffffffffffffffff1673ffffffffffffffffffffffffffffffffffffffff16815260200190815260200160002090508060010160009054906101000a900460ff1615610566576040517f08c379a000000000000000000000000000000000000000000000000000000000815260040161055d90611452565b60405180910390fd5b60018160010160006101000a81548160ff02191690831515021790555061058f30336001610c90565b50565b60008061059d610abd565b90506105aa858285610f11565b6105b5858585610c90565b60019150509392505050565b60006012905090565b6000806105d5610abd565b9050610669818585600160008673ffffffffffffffffffffffffffffffffffffffff1673ffffffffffffffffffffffffffffffffffffffff16815260200190815260200160002060008973ffffffffffffffffffffffffffffffffffffffff1673ffffffffffffffffffffffffffffffffffffffff16815260200190815260200160002054610664919061156d565b610ac5565b600191505092915050565b60008060008373ffffffffffffffffffffffffffffffffffffffff1673ffffffffffffffffffffffffffffffffffffffff168152602001908152602001600020549050919050565b6106c4610abd565b73ffffffffffffffffffffffffffffffffffffffff166106e2610744565b73ffffffffffffffffffffffffffffffffffffffff1614610738576040517f08c379a000000000000000000000000000000000000000000000000000000000815260040161072f90611472565b60405180910390fd5b6107426000610f9d565b565b6000600560009054906101000a900473ffffffffffffffffffffffffffffffffffffffff16905090565b60606004805461077d9061164b565b80601f01602080910402602001604051908101604052809291908181526020018280546107a99061164b565b80156107f65780601f106107cb576101008083540402835291602001916107f6565b820191906000526020600020905b8154815290600101906020018083116107d957829003601f168201915b5050505050905090565b60008061080b610abd565b90506000600160008373ffffffffffffffffffffffffffffffffffffffff1673ffffffffffffffffffffffffffffffffffffffff16815260200190815260200160002060008673ffffffffffffffffffffffffffffffffffffffff1673ffffffffffffffffffffffffffffffffffffffff168152602001908152602001600020549050838110156108d1576040517f08c379a00000000000000000000000000000000000000000000000000000000081526004016108c8906114d2565b60405180910390fd5b6108de8286868403610ac5565b60019250505092915050565b60066020528060005260406000206000915090508060000154908060010160009054906101000a900460ff16905082565b600080610926610abd565b9050610933818585610c90565b600191505092915050565b6000600160008473ffffffffffffffffffffffffffffffffffffffff1673ffffffffffffffffffffffffffffffffffffffff16815260200190815260200160002060008373ffffffffffffffffffffffffffffffffffffffff1673ffffffffffffffffffffffffffffffffffffffff16815260200190815260200160002054905092915050565b6109cd610abd565b73ffffffffffffffffffffffffffffffffffffffff166109eb610744565b73ffffffffffffffffffffffffffffffffffffffff1614610a41576040517f08c379a0000000000000000000000000000000000000000000000000000000008152600401610a3890611472565b60405180910390fd5b600073ffffffffffffffffffffffffffffffffffffffff168173ffffffffffffffffffffffffffffffffffffffff161415610ab1576040517f08c379a0000000000000000000000000000000000000000000000000000000008152600401610aa8906113d2565b60405180910390fd5b610aba81610f9d565b50565b600033905090565b600073ffffffffffffffffffffffffffffffffffffffff168373ffffffffffffffffffffffffffffffffffffffff161415610b35576040517f08c379a0000000000000000000000000000000000000000000000000000000008152600401610b2c906114b2565b60405180910390fd5b600073ffffffffffffffffffffffffffffffffffffffff168273ffffffffffffffffffffffffffffffffffffffff161415610ba5576040517f08c379a0000000000000000000000000000000000000000000000000000000008152600401610b9c906113f2565b60405180910390fd5b80600160008573ffffffffffffffffffffffffffffffffffffffff1673ffffffffffffffffffffffffffffffffffffffff16815260200190815260200160002060008473ffffffffffffffffffffffffffffffffffffffff1673ffffffffffffffffffffffffffffffffffffffff168152602001908152602001600020819055508173ffffffffffffffffffffffffffffffffffffffff168373ffffffffffffffffffffffffffffffffffffffff167f8c5be1e5ebec7d5bd14f71427d1e84f3dd0314c0f7b2291e5b200ac8c7c3b92583604051610c8391906114f2565b60405180910390a3505050565b600073ffffffffffffffffffffffffffffffffffffffff168373ffffffffffffffffffffffffffffffffffffffff161415610d00576040517f08c379a0000000000000000000000000000000000000000000000000000000008152600401610cf790611492565b60405180910390fd5b600073ffffffffffffffffffffffffffffffffffffffff168273ffffffffffffffffffffffffffffffffffffffff161415610d70576040517f08c379a0000000000000000000000000000000000000000000000000000000008152600401610d67906113b2565b60405180910390fd5b610d7b838383611063565b60008060008573ffffffffffffffffffffffffffffffffffffffff1673ffffffffffffffffffffffffffffffffffffffff16815260200190815260200160002054905081811015610e01576040517f08c379a0000000000000000000000000000000000000000000000000000000008152600401610df890611432565b60405180910390fd5b8181036000808673ffffffffffffffffffffffffffffffffffffffff1673ffffffffffffffffffffffffffffffffffffffff16815260200190815260200160002081905550816000808573ffffffffffffffffffffffffffffffffffffffff1673ffffffffffffffffffffffffffffffffffffffff1681526020019081526020016000206000828254610e94919061156d565b925050819055508273ffffffffffffffffffffffffffffffffffffffff168473ffffffffffffffffffffffffffffffffffffffff167fddf252ad1be2c89b69c2b068fc378daa952ba7f163c4a11628f55a4df523b3ef84604051610ef891906114f2565b60405180910390a3610f0b848484611068565b50505050565b6000610f1d848461093e565b90507fffffffffffffffffffffffffffffffffffffffffffffffffffffffffffffffff8114610f975781811015610f89576040517f08c379a0000000000000000000000000000000000000000000000000000000008152600401610f8090611412565b60405180910390fd5b610f968484848403610ac5565b5b50505050565b6000600560009054906101000a900473ffffffffffffffffffffffffffffffffffffffff16905081600560006101000a81548173ffffffffffffffffffffffffffffffffffffffff021916908373ffffffffffffffffffffffffffffffffffffffff1602179055508173ffffffffffffffffffffffffffffffffffffffff168173ffffffffffffffffffffffffffffffffffffffff167f8be0079c531659141344cd1fd0a4f28419497f9722a3daafe3b4186f6b6457e060405160405180910390a35050565b505050565b505050565b60008135905061107c81611990565b92915050565b600081359050611091816119a7565b92915050565b6000602082840312156110a957600080fd5b60006110b78482850161106d565b91505092915050565b600080604083850312156110d357600080fd5b60006110e18582860161106d565b92505060206110f28582860161106d565b9150509250929050565b60008060006060848603121561111157600080fd5b600061111f8682870161106d565b93505060206111308682870161106d565b925050604061114186828701611082565b9150509250925092565b6000806040838503121561115e57600080fd5b600061116c8582860161106d565b925050602061117d85828601611082565b9150509250929050565b611190816115c3565b82525050565b61119f816115d5565b82525050565b60006111b082611551565b6111ba818561155c565b93506111ca818560208601611618565b6111d3816116db565b840191505092915050565b60006111eb60238361155c565b91506111f6826116ec565b604082019050919050565b600061120e60268361155c565b91506112198261173b565b604082019050919050565b600061123160228361155c565b915061123c8261178a565b604082019050919050565b6000611254601d8361155c565b915061125f826117d9565b602082019050919050565b600061127760268361155c565b915061128282611802565b604082019050919050565b600061129a600f8361155c565b91506112a582611851565b602082019050919050565b60006112bd60208361155c565b91506112c88261187a565b602082019050919050565b60006112e060258361155c565b91506112eb826118a3565b604082019050919050565b600061130360248361155c565b915061130e826118f2565b604082019050919050565b600061132660258361155c565b915061133182611941565b604082019050919050565b61134581611601565b82525050565b6113548161160b565b82525050565b600060208201905061136f6000830184611187565b92915050565b600060208201905061138a6000830184611196565b92915050565b600060208201905081810360008301526113aa81846111a5565b905092915050565b600060208201905081810360008301526113cb816111de565b9050919050565b600060208201905081810360008301526113eb81611201565b9050919050565b6000602082019050818103600083015261140b81611224565b9050919050565b6000602082019050818103600083015261142b81611247565b9050919050565b6000602082019050818103600083015261144b8161126a565b9050919050565b6000602082019050818103600083015261146b8161128d565b9050919050565b6000602082019050818103600083015261148b816112b0565b9050919050565b600060208201905081810360008301526114ab816112d3565b9050919050565b600060208201905081810360008301526114cb816112f6565b9050919050565b600060208201905081810360008301526114eb81611319565b9050919050565b6000602082019050611507600083018461133c565b92915050565b6000604082019050611522600083018561133c565b61152f6020830184611196565b9392505050565b600060208201905061154b600083018461134b565b92915050565b600081519050919050565b600082825260208201905092915050565b600061157882611601565b915061158383611601565b9250827fffffffffffffffffffffffffffffffffffffffffffffffffffffffffffffffff038211156115b8576115b761167d565b5b828201905092915050565b60006115ce826115e1565b9050919050565b60008115159050919050565b600073ffffffffffffffffffffffffffffffffffffffff82169050919050565b6000819050919050565b600060ff82169050919050565b60005b8381101561163657808201518184015260208101905061161b565b83811115611645576000848401525b50505050565b6000600282049050600182168061166357607f821691505b60208210811415611677576116766116ac565b5b50919050565b7f4e487b7100000000000000000000000000000000000000000000000000000000600052601160045260246000fd5b7f4e487b7100000000000000000000000000000000000000000000000000000000600052602260045260246000fd5b6000601f19601f8301169050919050565b7f45524332303a207472616e7366657220746f20746865207a65726f206164647260008201527f6573730000000000000000000000000000000000000000000000000000000000602082015250565b7f4f776e61626c653a206e6577206f776e657220697320746865207a65726f206160008201527f6464726573730000000000000000000000000000000000000000000000000000602082015250565b7f45524332303a20617070726f766520746f20746865207a65726f20616464726560008201527f7373000000000000000000000000000000000000000000000000000000000000602082015250565b7f45524332303a20696e73756666696369656e7420616c6c6f77616e6365000000600082015250565b7f45524332303a207472616e7366657220616d6f756e742065786365656473206260008201527f616c616e63650000000000000000000000000000000000000000000000000000602082015250565b7f637265617465206e657720757365720000000000000000000000000000000000600082015250565b7f4f776e61626c653a2063616c6c6572206973206e6f7420746865206f776e6572600082015250565b7f45524332303a207472616e736665722066726f6d20746865207a65726f20616460008201527f6472657373000000000000000000000000000000000000000000000000000000602082015250565b7f45524332303a20617070726f76652066726f6d20746865207a65726f2061646460008201527f7265737300000000000000000000000000000000000000000000000000000000602082015250565b7f45524332303a2064656372656173656420616c6c6f77616e63652062656c6f7760008201527f207a65726f000000000000000000000000000000000000000000000000000000602082015250565b611999816115c3565b81146119a457600080fd5b50565b6119b081611601565b81146119bb57600080fd5b5056fea26469706673582212206888b61ff6423ece43c802605a54d1ede11857aa85f006cf7193e5debd78bdc164736f6c63430008040033",
  "linkReferences": {},
  "deployedLinkReferences": {}
}